:030000000200B348
:0B00B300758108120091E582600302D5
:0200BE0000033D
:0300C00002000338
:0500030012002D80FE3B
:0C000800AA825380CF8A8212001C850857
:080014008212001C438030221F
:04001C00AA827B0831
:0D002000EA23FA139281D280C280DBF42221
:0E002D0075803875B23B75A0C075B4CF75B143
:0E003B00F075B6F890E68AE4F00090E680E4F6
:0C004900F053A0FE43A001C28175080125
:0C00550075820112000875080F75820802
:0A00610012000875080075821412E1
:04006B0000087A000F
:0E006F00EA24E0F582E434E1F583E4F00ABA15
:06007D0010F07A007B0088
:050083000ABA00010BA8
:09008800EB30E7F763A04080F2C1
:080091007800E84400600C79DE
:0C00990000901800E4F0A3D8FCD9FAD0C5
:0E00A50083D082F6D8FDC082C083758200220F
:00000001FF
