:0600000002125902006B20
:03000B0002006B85
:0300130002006B7D
:03001B0002006B75
:0300230002006B6D
:03002B0002006B65
:0300330002006B5D
:03003B0002006B55
:0300430002006B4D
:03004B0002006B45
:0300530002006B3D
:03005B0002006B35
:0300630002006B2D
:01006B003262
:0900800002006B0002006B00029B
:08008900006B0002006B000295
:08009100006B0002006B00028D
:08009900006B0002006B000285
:0800A100006B0002006B00027D
:0800A900006B0002006B000275
:0700B100006B0002006B0070
:0901000002006B0002006B00021A
:08010900006B0002006B000214
:08011100006B0002006B00020C
:08011900006B0002006B000204
:08012100006B0002006B0002FC
:08012900006B0002006B0002F4
:08013100006B0002006B0002EC
:08013900006B0002006B0002E4
:08014100006B0002006B0002DC
:08014900006B0002006B0002D4
:08015100006B0002006B0002CC
:08015900006B0002006B0002C4
:08016100006B0002006B0002BC
:08016900006B0002006B0002B4
:08017100006B0002006B0002AC
:07017900006B0002006B00A7
:03128500021288CA
:07125900750C01750800751A
:061260000900750A00758B
:021266000B007B
:03129B00020180CD
:050180001204E080FE06
:0501850090E68BE4F0A0
:09018A0090E6A0E0FA20E1F82261
:0A01930090E6B8E0FABAC00280035B
:03019D00020268F3
:0A01A00090E6B9E0FABA8002800E82
:0501AA00BA810280474C
:0601AF00BA8203020224E3
:0301B500020264DF
:0C01B80090E6BCE0FA6005BA0130801748
:0A01C40090E740E50BF0750B00908A
:0D01CE00E68AE4F090E68B7401F0020399DC
:0A01DB0090E740E50AF0750A009075
:0D01E500E68AE4F090E68B7401F0020399C5
:0401F20075820022F0
:0A01F60090E6BAE0FA751B40751C94
:0C020000E790E6BEE0F51D8A82120AA11C
:07020C00E5827003F5822278
:0E02130090E68AE4F090E6BEE0FA90E68BF00A
:030221000203993C
:0C02240090E6BBE0FA90E6BAE0F521900D
:0A023000E6BDE0F52290E6BCE0F523
:05023A0023752440754E
:0A023F0025E790E6BEE0F5268A826E
:0A024900120865E5827003F58222B9
:0E02530090E68AE4F090E6BEE0FA90E68BF0CA
:03026100020399FC
:04026400758200227D
:0A02680090E6B8E0FABA4002800305
:03027200020395EF
:0C02750090E6B9E0FA24F4500302039173
:07028100EA2A2A90028873AB
:070288000203910202AC0227
:06028F0002D602039102F9
:06029500030002030D024C
:06029B00031A02039102A8
:0602A100033F02035F02AF
:0502A7000327020333F0
:0C02AC0090E6BCE0FA6005BA011C800D71
:0D02B80090E6BAE0FAF5821205D002039933
:0D02C50090E6BAE0FAF5821205DD02039919
:0402D200758200220F
:0C02D60090E6BCE0FA600ABA0102800861
:0502E200BA02178012B2
:0302E7000206729A
:0C02EA0012018590E68BE0F51290E740D1
:0302F6000206E11C
:0302F9000206F109
:0402FC0075820022E5
:0D03000090E6BAE0FAF58212075302039965
:0D030D0090E6BAE0FAF58212076E0203993D
:0D031A0090E6BAE0FAF58212078902039915
:0C03270090E6BAE0FAF5821207A48066A6
:0C03330090E6BAE0FAF5821207AE805A9C
:0C033F0012018590E6BAE0FA751B4075CB
:0A034B001CE790E68BE0F51D8A82A6
:0A035500120B64E582703DF5822270
:0D035F0012018590E6BBE0FA90E6BAE0F5E9
:0A036C002790E6BDE0F52890E6BCFE
:07037600E0F529752A40752E
:0A037D002BE790E68BE0F52C8A8256
:0A0387001208D3E582700BF5822204
:04039100758200224F
:04039500758200224B
:040399007582012246
:0D039D0090E6C67481F090E6C7742DF090D4
:0E03AA00E6C87426F090E6C9E4F090E6CA7446
:0E03B80004F090E6CB7404F090E6CC7403F0F1
:0B03C60090E6CD7402F090E60CE4F02D
:0603D100300003120D765E
:0E03D700E5BB30E7F5E58054C06016E58030E8
:0503E500E703750B01A8
:0803EA00E58030E603750A010D
:0603F20043B10853B1F70E
:0C03F800E508602AE5AB20E12590E6F462
:0D040400E0FA30E01D90E6D07401F00090A9
:0E041100E6D1E4F00090E6C87421F00075BB5F
:02041F000000DB
:05042100E5BB30E7FB24
:0C042600E50960A790E6A5E0FA20E39F3E
:0E04320090E6F4E0FA30E19790E6D07401F025
:0E0440000090E6D1E4F00090E6C87426F000CB
:04044E0075BB060074
:0D045200E5BB30E7FB0090E6487406F002C1
:02045F0003D1C7
:09046100C0E0150CE50C700675F5
:05046A000C3263A0400C
:05046F00C2CFD0E03215
:040474007518007582
:03047800191875DB
:09047B001705751A017582501273
:080484000A05901800E0FA904F
:0D048C00E00CF090E05AEAF074302AFA908B
:05049900E0CEF0751833
:03049E00017519CC
:0504A100187517F87545
:0A04A6001A08758250120A057A0048
:0304B000BA080087
:0A04B300502AEA2401F582E434180F
:0904BD00F583E0FBBBFF027B307C
:0C04C6008A04E4FDCC25E0CC33FDEC24DE
:0A04D2002AF582ED34E1F583EBF02A
:0304DC000A80D1C2
:0104DF0022FA
:0804E000753900753A10E4F5CE
:0B04E8003B90E1F075F000120BDF12FA
:0E04F300052C1207B890E601E0FA4404F075FB
:0E05010082001205D07582001205DDC2AF1215
:06050F00047412116E12CB
:050515000CE07A617B9F
:0C051A00048A828B83121216D2EAD2AF40
:06052600120A7B02039D96
:0E052C0090E6007410F0758E0090E60174F2F7
:0E053A00F00075803875B23B75A0C075B4CF67
:0E05480075B1F075B6F890E61074A0F0009052
:0E055600E61174E0F00090E61274A0F0009040
:0D056400E613E4F00090E61474E0F000905F
:0D057100E615E4F00090E6047480F00090C0
:0E057E00E6047402F00090E6047406F00090AB
:0D058C00E604E4F00090E6187401F0009021
:0E059900E6187411F00090E61A7409F0009054
:0E05A700E68AE4F00090E68DE4F00090E6D2E3
:0E05B5007401F00090E6E27402F00090E6247B
:0D05C3007402F00090E625E4F000020663EB
:0905D000E582FA700443A0402208
:0405D90053A0BF224A
:0905DD00E582FA700443A08022BB
:0405E60053A07F227D
:0405EA0063A04022A8
:0405EE0063A0802264
:0105F20022E6
:0105F30022E5
:0B05F400AA82901809E50EF0743F5534
:0605FF000DFBEAB401004F
:09060500E433FA60047A02800279
:02060E007A046C
:050610008B278A28750C
:040615002920752AF9
:0306190009752B35
:08061C0018752C017582000223
:0206240008D3F9
:0C062600AA82901809E50FF0743F5AF505
:05063200277528067584
:040637002920752AD7
:03063B0009752B13
:08063E0018752C017582000201
:0206460008D3D7
:0A064800750F017582011206267578
:090652000F0F75820812062675CF
:08065B000F007582140206264F
:0D0663001205F212082C53A0FE43A0010264
:0206700006483A
:0C06720053A0C175822812123343A0046B
:09067E00E5A030E5FB75820122C4
:0E068700E5821392A1D2A3C2A31392A1D2A323
:0E069500C2A31392A1D2A3C2A31392A1D2A317
:0E06A300C2A31392A1D2A3C2A31392A1D2A309
:0E06B100C2A31392A1D2A3C2A31392A1D2A3FB
:0306BF00C2A322B1
:0606C200AA82AB10AC118E
:0E06C8008A051AED60128B828C83E0FDA3ABD5
:0A06D60082AC838D8212068780E853
:0106E00022F7
:0706E100858210858311855D
:0906E80012821206C27582012281
:0A06F100E5A0FA20E504758200225E
:0A06FB00530210BA100475820122A8
:0407050075820022D7
:0712680075130075140090DE
:09126F00180AE4F090180BF0904D
:07127800180CF090180DF0B6
:0A070900AA82747F5AF527752801B3
:05071300752920851589
:030718002A851619
:08071B002B752C04758200020D
:0207230008D3F9
:080725007A00E50860027A0188
:07072D00E50960034302022D
:07073400E51360034302041A
:07073B00E51460034302080E
:0707420090180DEAF0751597
:030749000A751618
:07074C001875820402070981
:0C075300E5825401FA601053A0FE750806
:08075F00007509007513007517
:0307670014002259
:04076A0043A0012285
:0C076E00AA825302018A08C0021207256B
:0C077A00D002EA6009750B0043B108537F
:02078600B1F7C9
:01078800224E
:0C078900AA825302018A09C0021207254F
:0C079500D002EA6009750A0043B1085365
:0207A100B1F7AE
:0107A3002233
:0A07A400AA8274015AF5130207251A
:0A07AE00AA8274015AF5140207250F
:0E07B80090E6F574FFF000901342E493FA907F
:0E07C600E6F3F0901343E493FA90E6C3F0904C
:0E07D4001344E493FA90E6C1F0901345E493C9
:0E07E200FA90E6C2F0901347E493FA90E6C056
:0307F000F07A009C
:0307F300BA8000C9
:0E07F60050128A037CE4EA90129E93FD8B82DF
:060804008C83F00A80E97C
:06080A0090E6C6E4F022B6
:0E129E00010101010101010700000000000034
:0E12AC00000000000000000000000000000034
:0E12BA000000003F013F010101010107220376
:0E12C800020202020200000101010101010008
:0E12D600000000000000003F0111013F010177
:0E12E4000107000300010000000006040400E2
:0E12F20000000000002D002D0000003F01391B
:0E1300000101010101070003020202020200C6
:0E130E000000000000000000002D00000000A4
:02131C00003F90
:0E131E000000000000000000000000000000C1
:0E132C0000000000812D260004040302008151
:08133A002D2100040403020050
:07134200A0000000EE4E00C8
:0CE0000012010002FFFFFF40FEFF0200C3
:06E00C0000010102060103
:0AE012000A060002FFFFFF400100B4
:0EE01C0009023200030100C0000904000000E8
:0EE02A00FFFFFF030904010001FFFFFF0407D1
:0EE038000502020002000904020001FFFFFFC2
:08E04600050705860200020037
:0CE04E0012010002FFFFFF40FEFF020075
:06E05A00000101020001BB
:0AE060000A060002FFFFFF40010066
:0EE06A0009021200010100C0000904000000BC
:04E07800FFFFFF03A4
:01E07C00079C
:02E07D008CE035
:02E07F0092E02D
:02E08100BAE003
:02E08300D0E0EB
:02E08500F2E0C7
:02E087000EE1A8
:02E0890028E18C
:06E08C0006030000090478
:0EE09200280346007200650065002000530060
:0EE0A0006F006600740077006100720065007A
:0CE0AE00200046006F006C006B00730047
:0EE0BA00160355005300520050002000520083
:06E0C80065007600200057
:02E0CE003F0011
:0EE0D000220343006F006D006D0061006E00C2
:0EE0DE00640020002600200053007400610042
:06E0EC00740075007300D2
:0EE0F2001C035400720061006E0073006D008C
:0EE10000690074002000500061007400680087
:0EE10E001A0352006500630065006900760088
:0CE11C00650020005000610074006800E5
:02E128001203E0
:0EE12A0033002E003100340031003500390082
:02E138003300B2
:0E081000AA8263020143803874075AFBC403B6
:0E081E0054F8FB628043B1F074F05A62B122CC
:09082C00758200120810C281223D
:0A083500AA827B00EA30E0027B019A
:05083F00EA30E1010BAD
:05084400EA30E2010BA7
:05084900EA30E3010BA1
:05084E00EA30E4010B9B
:05085300EA30E5010B95
:05085800EA30E6010B8F
:05085D00EA30E7010B89
:030862008B822264
:0C086500AA82852282C002120835AB82F4
:0B087100D002EB24FE50047582002230
:0B087C00852282C002120810D002E5A5
:080887002330E7047582002212
:0C088F0074605523FB6023BB2002800531
:05089B00BB40178008BE
:0808A00085218212092C801150
:0908A8008A8212092C85218212BA
:0408B100092C80048A
:0408B5007582002226
:0608B900E526600C852617
:0508BF002E8524828556
:0508C40025831209E686
:0A08C90075820012081075820122EA
:0C08D300AA82852882C002120810D00200
:0908DF00E52930E70475820022CE
:0C08E80074605529FB6023BB20028005D2
:0508F400BB4017800865
:0808F90085278212092C8011F1
:090901008A8212092C852782125A
:04090A00092C800430
:04090E0075820022CC
:06091200E52C600C852CB1
:050918002D852A8285F7
:05091D002B8312097F8D
:0A0922007582001208107582012290
:0E092C00E582FA23FA139281D280C280EA2378
:0E093A00FA139281D280C280EA23FA139281CE
:0E094800D280C280EA23FA139281D280C2804C
:0E095600EA23FA139281D280C280EA23FA13B8
:0E0964009281D280C280EA23FA139281D2805F
:0D097200C280EA23FA139281D280C2802253
:06097F00AA82AB83AC2D3F
:070985008C051CBD000122DE
:0E098C008A828B83E0FDA3AA82AB838D82C09A
:0E099A0002C003C00412092CD004D003D00206
:0209A80080DBF2
:0E09AA00E4D280A28233C280D280A28233C205
:0E09B80080D280A28233C280D280A28233C25B
:0E09C60080D280A28233C280D280A28233C24D
:0E09D40080D280A28233C280D280A28233C23F
:0409E20080F58222F8
:0609E600AA82AB83AC2ED7
:0709EC008C051CBD00012277
:0E09F3001209AAAD828A828B83EDF0A3AA823C
:040A0100AB8380E75C
:090A0500AA8290180EE517F075A5
:030A0E001B0E7547
:030A11001C187539
:0C0A14001D018A82C002120B64E582D032
:060A2000027003F58222C2
:040A260085181B858F
:030A2A00191C850F
:050A2D001A1D8A82027F
:020A32000AA117
:080A3400780FE84400600C7922
:0C0A3C0001901800E4F0A3D8FCD9FAD017
:0E0A480083D082F6D8FDC082C0837582002262
:090A560090E6A0E0FA4401F02250
:0E0A5F00AA8274805AFBC423541FFB740F5AE2
:0E0A6D0090E6834BF090E683E0FA4420F022FE
:0E0A7B0090E680E0FA440AF09000FA1212466B
:0E0A890090E65D74FFF090E65F74FFF053910D
:0A0A9700EF90E680E0FA54F7F02239
:06129500E478FFF6D8FD2D
:0A0AA100AA82E51D7004758201228F
:0E0AAB0090E678E0FB20E6F890E6787480F0A4
:0A0AB900EA2AFA90E67974014AF087
:0E0AC30090E678E0FA30E0F890E678E0FA305D
:050AD100E203020B58D6
:0B0AD60090E678E0FA20E103020B58E4
:0C0AE100E51DB4010890E678E0FA44201E
:010AED00F018
:090AEE0090E679E0F51EAA1BABAD
:030AF7001CAC1D17
:040AFA00DC0280306A
:0E0AFE0090E678E0FD30E0F890E678E0FD202C
:0D0B0C00E24ABC010890E678E0FD4420F0CC
:0E0B190090E679E0FD8A828B83F0A3AA82AB7E
:070B2700838A1B8B1C80CCAC
:0E0B2E0090E678E0FA30E0F890E678E0FA2001
:0C0B3C00E21A90E678E0FA4440F0AA1BB0
:0C0B4800AB1C90E679E0FC8A828B83F005
:040B54007582012283
:0C0B580090E678E0FA4440F0758200223C
:020B6400AA8263
:0E0B660090E678E0FB20E6F890E6787480F0E8
:070B7400EA2AFA90E679F08D
:0E0B7B0090E678E0FA30E0F890E678E0FA20B4
:0C0B8900E24890E678E0FA30E140AA1B58
:040B9500AB1CAC1DCC
:0E0B9900EC602B8A828B83E0FDA3AA82AB83E3
:060BA70090E679EDF01C60
:0E0BAD0090E678E0FD30E0F890E678E0FD207C
:0C0BBB00E21690E678E0FD20E1D4800C0A
:0C0BC70090E678E0FA4440F075820122CC
:0C0BD30090E678E0FA4440F075820022C1
:080BDF0085823C85833D85F011
:040BE7003EAD3CAE35
:040BEB003DAF3EA834
:030BEF003AA93BE5
:090BF2008802890318B8FF0119FB
:0C0BFB00EA4B60128D828E838FF0E5398A
:0A0C0700121048A3AD82AE8380E115
:070C1100853C82853D8385CF
:030C18003EF02289
:06127F00752F0075300020
:0A0C1B0090E680E0FA30E719753129
:030C250000753225
:030C2800E0753341
:030C2B001275340B
:030C2E00E0753539
:030C31001C7536F9
:030C3400E0753731
:030C37006A7538A3
:020C3A00E022B6
:040C3C0075314E754B
:030C400032E0752A
:030C4300336075A6
:030C460034E07522
:030C4900356A7594
:030C4C0036E0751A
:030C4F00371C75DA
:030C520038E02265
:090C55005391EF75A100D20032A9
:0E0C5E00C0E0C0F0C082C083C002C003C0046A
:0E0C6C00C005C006C007C000C001C0D075D0D2
:0E0C7A00005391EF75A100120C1BD0D0D001D9
:0E0C8800D000D007D006D005D004D003D00293
:090C9600D083D082D0F0D0E0320E
:0E0C9F00C0E0C0F0C082C083C002C003C00429
:0E0CAD00C005C006C007C000C001C0D075D091
:0E0CBB00005391EF75A100120C1BD0D0D00198
:0E0CC900D000D007D006D005D004D003D00252
:090CD700D083D082D0F0D0E032CD
:050CE000120C1B753928
:030CE50055753A08
:080CE8000C7582001210C475A6
:030CF000395E75F5
:060CF3003A0C758210129C
:040CF90010C4753975
:030CFD009F753AA6
:0C0D00000C7582141210C490E65C743173
:020D0C00F022D3
:0D0D0E00E582547FFA24F75004758200221C
:070D1B00BA010475820122F8
:080D2200530201E4BA000104D0
:030D2A00F582222D
:0E0D2D00AA82BA010C90E6A1E0FB7C008B824A
:030D3B008C832284
:0E0D3E00BA810C90E6A2E0FB7C008B828C83D5
:010D4C002284
:0E0D4D0053027FEA700C90E6A0E0FB7C008B66
:040D5B00828C8322E1
:0E0D5F0090E6A3E0FB7C00EAC313FA7D00EAF5
:090D6D002BFBED3C8B82F5832287
:0C0D7600C20090E6B8E0FA530260BA0038
:030D8200028028C4
:050D8500BA2002800D00
:050D8A00BA4002800EDA
:050D8F00BA60028003C0
:030D940002103F0B
:060D9700120A5602103F93
:0A0D9D00120193E582600302103F8B
:060DA700120A5602103F83
:0D0DAD0090E6B8E0FA530280BA800280039D
:030DBA00020F3BEA
:0B0DBD0090E6B9E0FABA0003020EB0A5
:050DC800BA06028035AF
:050DCD00BA08028008D5
:050DD200BA0A028017BF
:030DD700020F35D3
:0C0DDA0090E740E52FF090E68AE4F090EE
:080DE600E68B7401F002103FDE
:0C0DEE0090E740E530F090E68AE4F090D9
:080DFA00E68B7401F002103FCA
:0A0E020090E6BBE0FABA0102801787
:050E0C00BA020280386B
:050E1100BA0302805944
:050E1600BA0602801B7A
:050E1B00BA0702803C53
:030E2000020EAA15
:0A0E2300AA31AB3290E6B3EBF07B8E
:090E2D000090E6B4EAF002103F67
:0A0E3600AA33AB3490E6B3EBF07B77
:090E40000090E6B4EAF002103F54
:0A0E4900AA35AB3690E6B3EBF07B60
:090E53000090E6B4EAF002103F41
:0A0E5C00AA37AB3890E6B3EBF07B49
:090E66000090E6B4EAF002103F2E
:0E0E6F0090E6BAE0FA90E07CE0FBC3EA9B401C
:070E7D0006120A5602103FA5
:0C0E840090E6BAE0FA75F002A4247DF5B7
:0C0E90008274E035F0F583E0FAA3E0FB8B
:0E0E9C0090E6B3F07B0090E6B4EAF002103F5F
:060EAA00120A5602103F7F
:0D0EB00090E6B8E0FA53021FBA0002800A73
:050EBD00BA0102801DD6
:050EC200BA026A802E57
:0E0EC70090E7407401F090E741E4F090E68A75
:0A0ED500F090E68B7402F002103F6B
:0E0EDF0090E740E4F090E741F090E68AF09052
:080EED00E68B7402F002103FD5
:0E0EF50090E6BCE0FAF582120D0EE582602652
:0E0F030090E6BCE0FAF582120D2DE0FA5302E2
:0E0F11000190E740EAF090E741E4F090E68AB4
:0A0F1F00F090E68B7402F002103F20
:060F2900120A5602103FFF
:060F2F00120A5602103FF9
:060F3500120A5602103FF3
:0C0F3B0090E6B9E0FA24F4500302103CE8
:070F4700EA2A2A900F4E7305
:070F4E0002103C020F8402B7
:060F55001002020FE3028E
:060F5B00103C02103C02F4
:060F6100103C02103C02EE
:060F6700103C020F7202B3
:050F6D00103C020F7BA7
:090F720090E6BAE0F52F02103FF1
:090F7B0090E6BAE0F53002103FE7
:0D0F840090E6B8E0FA53021FBA00028005A3
:050F9100BA024A800ACB
:0A0F960090E6BAE0120A5602103F7E
:0E0FA00090E6BAE0703390E6BCE0FAF58212FB
:0E0FAE000D0EE582602590E6BCE0FAF5821299
:0E0FBC000D2DAA82AB83E0FC5304FE8A828BCB
:0E0FCA0083ECF090E6BCE0FAF582120A5F803C
:010FD80066B2
:050FD900120A568061C0
:050FDE00120A56805CC0
:0E0FE30090E6B8E0FA53021FBA005190E6BA49
:070FF100E0FABA01028005DD
:050FF800BA0202804274
:050FFD00120A56803DC0
:0E10020090E6BAE0FA702E90E6BCE0FAF582B5
:0E101000120D0EE582601B90E6BCE0FAF58240
:0E101E00120D2DAA82AB83E0FC4304018A82EE
:06102C008B83ECF0800D47
:05103200120A568008BF
:05103700120A568003BF
:03103C00120A563F
:09103F0090E6A0E0FA4480F022E2
:0E10480020F71030F6118883A88220F507F6F5
:05105600A88375830072
:01105B002272
:03105C00F280F728
:02105F00F0227D
:05106100AA82BA0300A1
:071066004005EA249C500143
:01106D002260
:09106E00740F5AFBBB030280075A
:07107700740F5AFBBB0B458F
:0A107E00A2AF9201C2AFEA2400F510
:0C10880082E43400F5837402F07B0074F5
:0C109400012AFCE43BFDEC2400F582ED99
:0A10A0003400F583E53AFCF0740219
:0C10AA002AFAE43BFBEA2400F582EB3458
:0A10B60000F583AA397B00EAF0A2DE
:0310C0000192AFEB
:0110C300220A
:0810C400E582FA2483500122A9
:0710CC0074035AFB600122CE
:0A10D300A2AF9202C2AFEA2400F5BA
:0C10DD0082E43401F5837402F07B00749F
:0C10E900012AFCE43BFDEC2400F582ED44
:0A10F5003401F583E53AFCF07402C3
:0C10FF002AFAE43BFBEA2400F582EB3403
:0A110B0001F583AA397B00EAF0A287
:041115000292AF2271
:08111900E582FA24CB5001220B
:0711210074035AFB60012278
:0A112800A2AF9203C2AFEA2480F5E3
:0C11320082E43400F5837402F07B00744A
:0C113E00012AFCE43BFDEC2480F582ED6E
:0A114A003400F583E53AFCF074026E
:0C1154002AFAE43BFBEA2480F582EB342D
:0A11600000F583AA397B00EAF0A233
:04116A000392AF221B
:08116E00C2E8C2EA7539007500
:061176003A0175824312EC
:04117C001061753950
:0311800080753A3D
:0C118300007582531210610090E650E4E9
:0E118F00F00090E652E4F00090E654E4F00028
:0E119D0090E656E4F00090E65174FFF00090EA
:0E11AB00E65374FFF00090E65574FFF00090DC
:0E11B900E65774FFF00090E658E4F090E65917
:0E11C70074FFF090E65AE4F090E65B74FFF0DF
:0E11D50090E65CE4F090E65D74FFF090E65E5C
:0E11E300E4F090E65F74FFF00090E660E4F048
:0D11F1000090E66174FFF090E662E4F0907B
:0E11FE00E66374FFF090E665E4F090E6687436
:0A120C000BF05391AFD2E8D2EA22B2
:0A121600AA82AB83C2AD8A398B3A7D
:0E12200075822B12106175CB6375CAC075C83C
:04122E0004D2AD2217
:011232002299
:02123300AA828D
:06123500121232DAFB2266
:03123B0090FB50D5
:08123E00A3E582458370F9224B
:04124600AA82AB834A
:08124A0012123B1ABAFF011B4E
:07125200BA00F5BB00F22217
:0312880075813E2F
:0A128B00120A34E5826003020180BC
:00000001FF
